:100000000C9472000C9414020C9465020C94BC02C3
:04003C000C948C0193
:14008C004275696C7420776974682044454D4F20636F6D7070
:1400A000696C65722E204E4F4E2D434F4D4D45524349414C5E
:1400B40020555345204F4E4C5920687474703A2F2F696D611A
:1400C800676563726166742E636F6D0A000030303054494D57
:0700DC004520003A002E0050
:1400E400CFEFD0E1CDBFDEBFC451D0400AEA08830024EFE0D9
:1400F800F1E011E0EF30F10711F00192FBCF0083E4EDF0E099
:14010C00A0E0B1E010E000E00BBFE33EF10721F0C8953196E6
:140120000D92F9CF0E946F01FFCFAA92A02E0A2D11270E9469
:140134000C03A99008958FEF8ABB8FE08093640008954A93AF
:14014800402F413029F40CE12CD001E0EADF06C0442321F4D1
:14015C0008E125D001E0E3DF49910895AA92A02E8091650017
:14017000846080936500809165008D7F8093650080916500AF
:1401840081608093650002E310E00E942303ABBA02E310E037
:140198000E942303809165008E7F80936500A9900895AA927E
:1401AC00A02E809165008B7F80936500809165008D7F8093E4
:1401C00065008091650081608093650002E310E00E9423035A
:1401D400ABBA02E310E00E942303809165008E7F809365001A
:1401E800A9900895AA92A02E0A2DBADF01E010E00E940C03D1
:1401FC00A99008954A935A93A80105C0FA010081EFDF4F5FE9
:140210005F4FFA0120802220B9F7599149910895AA92CA92A6
:14022400A22EC02E2C2D332700E410E00E943A030A0D006823
:14023800B8DFC990A990089501E0B3DF02E071CF08E3AFDFDE
:14024C0002E06DDF08E3ABDF02E069DF08E3A7DF02E065DF3A
:140260000EE0A3DF02E061DF06E09FDF02E05DDFE7CF02E0DE
:140274009ADF02E058CF4A93402F413029F404E192DF01E0E3
:1402880050DF06C0442321F400E18BDF01E049DF4991089526
:14029C000EE085DF02E043CF8FEF8ABB8FE08093640008E374
:1402B0007CDF02E03ADF08E378DF02E036DF08E374DF02E08B
:1402C40032DF0EE070DF02E02EDF01E06CDF0EE12ADF06E0DF
:1402D80068DF02E026CF16D00ED00E949D000E9424012227E1
:1402EC0000270E94100105E011E00E940001FFCF08958AE2D4
:1403000080936A0089E089BF7894089583B78E6183BF8CE932
:1403140081BF08950A921A922A923A924A925A926A927A9258
:140328008A929A920A931A932A933A938A939A93AA93BA93D1
:14033C00EA93FA930FB60A924A938091000190910101019699
:1403500090930101809300018F33E0E09E0759F480910201D8
:140364008F5F8093020122243324309201012092000180915C
:1403780002018A3341F480E380930201809103018F5F8093ED
:14038C000301809103018A3341F480E38093030180910401C2
:1403A0008F5F80930401809104018A3309F440E30E949D0011
:1403B4000E942401222700270E94100105E011E00E940001D2
:1403C80026E000270E941001009104010E94B4000BE011E079
:1403DC000E940001009103010E94B4000DE011E00E940001FE
:1403F000009102010E94B400499109900FBEF991E991B99181
:14040400A99199918991399129911991099199908990799053
:14041800699059904990399029901990099018950A921A925C
:14042C002A923A924A925A926A927A928A929A920A931A93D2
:140440002A933A938A939A93AA93BA93EA93FA930FB60A92DF
:140454000E949D000E942401222700270E94100105E011E095
:140468000E94000126E000270E941001009104010E94B40011
:14047C000BE011E00E940001009103010E94B4000DE011E024
:140490000E940001009102010E94B40009900FBEF991E99161
:1404A400B991A9919991899139912991199109919990899072
:1404B8007990699059904990399029901990099018950A925F
:1404CC001A922A923A924A925A926A927A928A929A920A9333
:1404E0001A932A933A938A939A93AA93BA93EA93FA930FB62E
:1404F4000A922224332430920101209200010E949D000E9463
:140508002401222700270E94100105E011E00E94000126E018
:14051C0000270E941001009104010E94B4000BE011E00E9487
:140530000001009103010E94B4000DE011E00E9400010091B9
:1405440002010E94B40009900FBEF991E991B991A991999132
:14055800899139912991199109919990899079906990599080
:14056C004990399029901990099018950A921A922A923A9261
:140580004A925A926A927A928A929A920A931A932A933A937B
:140594008A939A93AA93BA93EA93FA930FB60A920E9454031B
:1405A8000E942401222700270E94100105E011E00E940001DC
:1405BC0040E360E380E3A82E082F0E94B4000BE011E00E9481
:1405D0000001062F0E94B4000DE011E00E940001042F0E9435
:1405E400B4000E945B0309900FBEF991E991B991A991999137
:1405F8008991399129911991099199908990799069905990E0
:14060C004990399029901990099018950E944A0344275527BA
:140620000CC06627772702C06F5F7F4F82E598E06817790793
:14063400C8F34F5F5F4F4017510788F30C944F0308950E9440
:140648004A03442755270CC06627772702C06F5F7F4F82E0B3
:14065C0090E068177907C8F34F5F5F4F4017510788F30C943A
:140670004F0308950A921A928A939A93029FC001129F900D45
:14068400039F900D8C01999189911990099008957A936A9369
:140698005A934A930895499159916991799108957A936A9378
:1406AC005A934A93BA92AA920895A990B9904991599169910B
:0406C000799108958F
:00000001FF
